{
  "contractName": "MyContract",
  "abi": [
    {
      "inputs": [],
      "stateMutability": "nonpayable",
      "type": "constructor"
    },
    {
      "inputs": [],
      "name": "message",
      "outputs": [
        {
          "internalType": "string",
          "name": "",
          "type": "string"
        }
      ],
      "stateMutability": "view",
      "type": "function",
      "constant": true
    },
    {
      "inputs": [
        {
          "internalType": "string",
          "name": "newMessage",
          "type": "string"
        }
      ],
      "name": "setMessage",
      "outputs": [],
      "stateMutability": "nonpayable",
      "type": "function"
    },
    {
      "inputs": [],
      "name": "getMessage",
      "outputs": [
        {
          "internalType": "string",
          "name": "",
          "type": "string"
        }
      ],
      "stateMutability": "view",
      "type": "function",
      "constant": true
    }
  ],
  "bytecode": "0x608060405234801561000f575f5ffd5b506040518060400160405280601281526020017f48656c6c6f2c20426c6f636b636861696e2100000000000000000000000000008152505f90816100539190610296565b50610365565b5f81519050919050565b7f4e487b71000000000000000000000000000000000000000000000000000000005f52604160045260245ffd5b7f4e487b71000000000000000000000000000000000000000000000000000000005f52602260045260245ffd5b5f60028204905060018216806100d457607f821691505b6020821081036100e7576100e6610090565b5b50919050565b5f819050815f5260205f209050919050565b5f6020601f8301049050919050565b5f82821b905092915050565b5f600883026101497fffffffffffffffffffffffffffffffffffffffffffffffffffffffffffffffff8261010e565b610153868361010e565b95508019841693508086168417925050509392505050565b5f819050919050565b5f819050919050565b5f61019761019261018d8461016b565b610174565b61016b565b9050919050565b5f819050919050565b6101b08361017d565b6101c46101bc8261019e565b84845461011a565b825550505050565b5f5f905090565b6101db6101cc565b6101e68184846101a7565b505050565b5b81811015610209576101fe5f826101d3565b6001810190506101ec565b5050565b601f82111561024e5761021f816100ed565b610228846100ff565b81016020851015610237578190505b61024b610243856100ff565b8301826101eb565b50505b505050565b5f82821c905092915050565b5f61026e5f1984600802610253565b1980831691505092915050565b5f610286838361025f565b9150826002028217905092915050565b61029f82610059565b67ffffffffffffffff8111156102b8576102b7610063565b5b6102c282546100bd565b6102cd82828561020d565b5f60209050601f8311600181146102fe575f84156102ec578287015190505b6102f6858261027b565b86555061035d565b601f19841661030c866100ed565b5f5b828110156103335784890151825560018201915060208501945060208101905061030e565b86831015610350578489015161034c601f89168261025f565b8355505b6001600288020188555050505b505050505050565b6106e6806103725f395ff3fe608060405234801561000f575f5ffd5b506004361061003f575f3560e01c8063368b877214610043578063ce6d41de1461005f578063e21f37ce1461007d575b5f5ffd5b61005d60048036038101906100589190610314565b61009b565b005b6100676100ad565b60405161007491906103bb565b60405180910390f35b61008561013c565b60405161009291906103bb565b60405180910390f35b805f90816100a991906105e1565b5050565b60605f80546100bb90610408565b80601f01602080910402602001604051908101604052809291908181526020018280546100e790610408565b80156101325780601f1061010957610100808354040283529160200191610132565b820191905f5260205f20905b81548152906001019060200180831161011557829003601f168201915b5050505050905090565b5f805461014890610408565b80601f016020809104026020016040519081016040528092919081815260200182805461017490610408565b80156101bf5780601f10610196576101008083540402835291602001916101bf565b820191905f5260205f20905b8154815290600101906020018083116101a257829003601f168201915b505050505081565b5f604051905090565b5f5ffd5b5f5ffd5b5f5ffd5b5f5ffd5b5f601f19601f8301169050919050565b7f4e487b71000000000000000000000000000000000000000000000000000000005f52604160045260245ffd5b610226826101e0565b810181811067ffffffffffffffff82111715610245576102446101f0565b5b80604052505050565b5f6102576101c7565b9050610263828261021d565b919050565b5f67ffffffffffffffff821115610282576102816101f0565b5b61028b826101e0565b9050602081019050919050565b828183375f83830152505050565b5f6102b86102b384610268565b61024e565b9050828152602081018484840111156102d4576102d36101dc565b5b6102df848285610298565b509392505050565b5f82601f8301126102fb576102fa6101d8565b5b813561030b8482602086016102a6565b91505092915050565b5f60208284031215610329576103286101d0565b5b5f82013567ffffffffffffffff811115610346576103456101d4565b5b610352848285016102e7565b91505092915050565b5f81519050919050565b5f82825260208201905092915050565b8281835e5f83830152505050565b5f61038d8261035b565b6103978185610365565b93506103a7818560208601610375565b6103b0816101e0565b840191505092915050565b5f6020820190508181035f8301526103d38184610383565b905092915050565b7f4e487b71000000000000000000000000000000000000000000000000000000005f52602260045260245ffd5b5f600282049050600182168061041f57607f821691505b602082108103610432576104316103db565b5b50919050565b5f819050815f5260205f209050919050565b5f6020601f8301049050919050565b5f82821b905092915050565b5f600883026104947fffffffffffffffffffffffffffffffffffffffffffffffffffffffffffffffff82610459565b61049e8683610459565b95508019841693508086168417925050509392505050565b5f819050919050565b5f819050919050565b5f6104e26104dd6104d8846104b6565b6104bf565b6104b6565b9050919050565b5f819050919050565b6104fb836104c8565b61050f610507826104e9565b848454610465565b825550505050565b5f5f905090565b610526610517565b6105318184846104f2565b505050565b5b81811015610554576105495f8261051e565b600181019050610537565b5050565b601f8211156105995761056a81610438565b6105738461044a565b81016020851015610582578190505b61059661058e8561044a565b830182610536565b50505b505050565b5f82821c905092915050565b5f6105b95f198460080261059e565b1980831691505092915050565b5f6105d183836105aa565b9150826002028217905092915050565b6105ea8261035b565b67ffffffffffffffff811115610603576106026101f0565b5b61060d8254610408565b610618828285610558565b5f60209050601f831160018114610649575f8415610637578287015190505b61064185826105c6565b8655506106a8565b601f19841661065786610438565b5f5b8281101561067e57848901518255600182019150602085019450602081019050610659565b8683101561069b5784890151610697601f8916826105aa565b8355505b6001600288020188555050505b50505050505056fea26469706673582212202242f1936d16f4f026ab36090e34f1392b58b0831dc1561e6355fd3dc723edfd64736f6c634300081c0033",
  "immutableReferences": {},
  "source": "// SPDX-License-Identifier: MIT\r\npragma solidity >=0.4.22 <0.9.0;\r\n\r\ncontract MyContract {\r\n    string public message;\r\n    \r\n    constructor() {\r\n        message = \"Hello, Blockchain!\";\r\n    }\r\n    \r\n    function setMessage(string memory newMessage) public {\r\n        message = newMessage;\r\n    }\r\n    \r\n    function getMessage() public view returns (string memory) {\r\n        return message;\r\n    }\r\n}",
  "sourcePath": "D:\\Adamson\\4TH YEAR - 2ND SEM\\INTRODUCTION TO BLOCKCHAIN TECHNOLOGIES\\Truffle Suite\\MetaCoin\\contracts\\MyContract.sol",
  "compiler": {
    "name": "solc",
    "version": "0.8.28+commit.7893614a.Emscripten.clang"
  },
  "schemaVersion": "3.4.16",
  "updatedAt": "2025-04-05T10:43:23.282Z",
  "networkType": "ethereum",
  "devdoc": {
    "kind": "dev",
    "methods": {},
    "version": 1
  },
  "userdoc": {
    "kind": "user",
    "methods": {},
    "version": 1
  }
}